S00F00004D6567614A6F792E7372656369
S11300000C9427010C9444010C9444010C94440175
S11300100C9444010C9444010C9444010C94440148
S11300200C9444010C9444010C9444010C94310448
S11300300C9452040C9444010C9444010C94440117
S11300400C9444010C9444010C9444010C94440118
S11300500C9444010C9444010C9444010C94440108
S11300600C9444010C9444010C9444010C944401F8
S11300700C94440121260107000000000001000047
S1130080350212000200001B0122002100002D0194
S113009009002200003D01F80003000017010401DB
S11300A0030904CD004802030904AD001E1E034BDE
S11300B00053005000200043006F006E0073006F77
S11300C0006C006500200056003100000048034F1A
S11300D000700065006E00430068006F00720064E9
S11300E00020005800200052004D00490054002018
S11300F0004500780065007200740069006F006EAE
S1130100002000470061006D006500730020004C72
S113011000610062000000040309040902220001D6
S113012001008032090400000103000000092111CC
S113013001000122F8000705810340000A050109B6
S113014005A10185011500250135004501750195BD
S113015030050919012930810205012507463B01B3
S11301607504950165140939814265009501810181
S113017016000026FF0336000046FF03093009314C
S11301800932093309340935093675109507810296
S11301900600FF0920092109220923092409250948
S11301A026092709280929092A092B7508950C818C
S11301B0020A21269508B102C005010905A101859D
S11301C00215002501350045017501953005091911
S11301D0012930810205012507463B01750495017B
S11301E065140939814265009501810116000026D4
S11301F0FF0336000046FF03093009310932093391
S11302000934093509367510950781020600FF097E
S11302102009210922092309240925092609270976
S1130220280929092A092B7508950C81020A212617
S11302309508B102C01201100100000040C410C1B1
S11302408200010102000101C132000000001124FA
S11302501FBECFEFD2E0DEBFCDBF11E0A0E0B1E022
S1130260EAEDFAE002C005900D92A230B107D9F789
S113027021E0A2E0B1E001C01D92A632B207E1F78D
S11302800E94B1010C946B050C9400009093CD0076
S11302908093CC0088E18093C90086E08093CA00F3
S11302A008952091C80027FD0AC0EFE9FFE03197C7
S11302B0F1F700C000000197A1F780E00895809154
S11302C0CE0008959091C80095FFFCCF8093CE0096
S11302D008958091C80087FF03C08091CE00F9CFB4
S11302E008954AB121E030E0B90102C0660F771FDA
S11302F08A95E2F7CB01462B4AB99BB180958923B5
S11303008BB908954AB121E030E0B90102C0660F0B
S1130310771F8A95E2F7CB01962F909549234AB926
S11303209BB1892B8BB908951F93CF93DF93182F1B
S11303300E94620189E190E00E945101C82FD0E03F
S113034081E0810F0E94620189E190E00E945101E5
S113035090E0982F88278C0F9D1FDF91CF911F91DC
S11303600895CF93DF93CDB7DEB7AA970FB6F8946D
S1130370DEBF0FBECDBFA89584B7877F84BF0FB6FD
S1130380F894A89580916000886180936000109231
S113039060000FBE89E190E00E94460180E88093EE
S11303A06100109261000E94F3020E941703811100
S11303B019C085E00E9471012FEF80E792E021507F
S11303C080409040E1F700C0000085E00E94820177
S11303D0EFEFF0E722E0E150F0402040E1F700C009
S11303E00000E3CF8FEF99E6E8E181509040E040D0
S11303F0E1F700C00000DD24D39482E0E82E8FE30F
S11304009CE90197F1F700C0000085E00E947101AA
S11304100E9469015E0196E1A90EB11C10E0812FD2
S11304200E94620189E190E00E945101F5018193EB
S11304305F011F5F163099F7CE0101965C01F82E1B
S11304400B2D812F0E94620189E190E00E945101ED
S1130450F50181935F011F5F1C3099F78CE00E94C6
S1130460620189E190E00E9451019C8D80FB90F92A
S1130470282F269520FB91F9282F2695269520FBD9
S113048092F9282F26952695269520FB93F99C8F83
S1130490282F22952F709F8120FB90F9282F2295D9
S11304A02695277020FB91F9282F229526952695CD
S11304B0237020FB92F9881F8827881F80FB93F9FB
S11304C09F838DE090E00E9494019E8F8D8F8FE03A
S11304D090E00E94940198A38F8F81E190E00E94A4
S11304E094019AA389A383E190E00E9494019CA3C0
S11304F08BA385E190E00E9494019EA38DA387E1E4
S113050090E00E94940198A78FA389E190E00E9453
S113051094019AA789A78BE190E00E94940199879E
S113052088878DE190E00E9494019B878A878FE100
S113053090E00E9494019D878C8781E290E00E9464
S113054094019F878E8783E290E00E949401998BA7
S1130550888B85E290E00E9494019B8B8A8B87E2D2
S113056090E00E9494019D8B8C8B85E00E94820117
S1130570DF928DB79EB745970FB6F8949EBF0FBE16
S11305808DBFADB7BEB7119685E1FE017696019099
S11305900D928A95E1F70E944A03EFE3FCE9319753
S11305A0F1F700C00000EF928DB79EB745970FB6E4
S11305B0F8949EBF0FBE8DBFADB7BEB7119685E14F
S11305C0EF2DF02F01900D928A95E1F70E944A03D6
S11305D00FB6F894DEBF0FBECDBF11CF8091E800F7
S11305E080FFFCCF089580EA8093D80086E089BD1F
S11305F080E090E009B400FC0DC0EFE9FFE0319722
S1130600F1F700C000000196883EF3E09F0791F7E0
S113061081E0089580E88093D8001092E000109261
S113062003018CE08093E200789480E00895809147
S11306300301089580910301811102C08FEF089591
S11306408FB7F89491E09093E9009091E4009E5C58
S113065021E03091E80035FD0EC08FBF8091030189
S1130660882361F38091E400981741F38FB7F894DD
S11306702093E900EECFE4E0F1E091919093F10052
S113068091E0E632F907C9F79AE39093E8008FBF47
S113069080E00895AF92BF92CF92DF92EF92FF92E3
S11306A00F931F93CF93DF93CDB7DEB78AA12C8925
S11306B03D894E895F89688D798D0A8D1B8DEC8CFF
S11306C0FD8CCE8CDF8CB8A0A9A08093040186E0B9
S11306D0FE013D96A5E0B1E001900D928A95E1F707
S11306E088E080930B018B89982F9170E82FE87034
S11306F081FF0DC0992311F0F7E003C082FF04C00D
S1130700F1E0F0930B0119C010920B0116C0EE2317
S113071051F0992311F0F5E009C082FF02C0F3E023
S113072005C0F4E003C0992321F0F6E0F0930B0137
S113073095C082FF93C0F2E0F9CFFFEFF0931A0166
S113074082FF04C08FEF80931B0102C010921B0133
S1130750EE2321F08FEF80931C0102C010921C0144
S1130760992321F08FEF80931D0102C010921D0187
S113077037FD07C0211584E038072CF02FEF33E054
S113078002C020E030E057FD07C0411584E058075F
S11307902CF04FEF53E002C040E050E077FD07C07B
S11307A0611584E078072CF06FEF73E002C060E01D
S11307B070E017FD07C0011584E018072CF00FEF57
S11307C013E002C000E010E0F7FC09C0E11484E08B
S11307D0F8063CF0EE24EA9493E0F92E02C0E12CF2
S11307E0F12CD7FC09C0C11484E0D8063CF0CC2419
S11307F0CA9483E0D82E02C0C12CD12C30930D01B1
S113080020930C0150930F0140930E01709311013A
S1130810609310011093130100931201F0921501DB
S1130820E0921401D0921701C09216018B2D9A2DDB
S1130830811524E0920714F08FEF93E0909319014F
S113084080931801DF91CF911F910F91FF90EF904A
S1130850DF90CF90BF90AF900C941A0310921A01BE
S11308606FCF1F920F920FB60F9211248F93809126
S1130870E1001092E10083FF0FC01092E90081E0D3
S11308808093EB001092EC0082E38093ED0088E00B
S11308908093F000109203018F910F900FBE0F9080
S11308A01F9018951F920F920FB60F9211242F9339
S11308B03F934F935F936F937F938F939F93AF93E4
S11308C0BF93CF93DF93EF93FF931092E90080914E
S11308D0E80083FFEAC09091F1008091F100C0919B
S11308E0F1002091F100D0E0D22B2091F100409151
S11308F0F10030E0342B4091F1005091F10062EFAF
S11309006093E800863009F049C08CE790E0FC0170
S113091065917491C617D707E1F4FC01329665918D
S1130920749126173707A9F4FC01349665917491E4
S1130930FC0136968491242F30E0352B2F3F31056E
S113094019F010F02FEF30E0281708F4822F3EEF53
S11309500DC0079660E08D3A9607C9F6A6C0690FE8
S1130960711D891B3093E8008823A9F09091E80059
S1130970292F2570D9F392FD9BC0982F813408F05C
S113098090E4FB01292F222351F344914093F10079
S113099021503196F8CF903449F38AC0853049F418
S11309A08EEF8093E8000E94EE02C068C093E300DB
S11309B07FC0893059F591113BC0C09303018EEF7C
S11309C08093E80041E087E492E04093E9009C01D1
S11309D02F5F3F4FFC0154915093EB00552359F086
S11309E0F90124912093EC009C012D5F3F4F319637
S11309F0E491E093ED004F5F453011F0C901E5CF7C
S1130A008EE18093EA001092EA0052C0883039F4F3
S1130A10903871F40E94EE02809103012AC0811182
S1130A2007C00E94EE021092F1001092F10039C04A
S1130A30232BD9F5913A01F5813071F40E94EE022D
S1130A40E4E7F0E08CE790E024912093F100319604
S1130A508E179F07C9F725C0823029F40E94EE0241
S1130A608091020106C0833001F50E94EE0280915C
S1130A7000018093F10015C09132B9F4893041F43A
S1130A808091E80082FFFCCF8BEF8093E80009C0DF
S1130A908A3019F4D093020104C08B3031F4C0932E
S1130AA000018EEF8093E80003C081E28093EB00A5
S1130AB0FF91EF91DF91CF91BF91AF919F918F9172
S1130AC07F916F915F914F913F912F910F900FBE46
S10D0AD00F901F901895F894FFCFC3
S1050ADA010015
S9030000FC
